:020000040000FA
:1000000048050010150200001D0200001F0200003C
:100010002102000023020000250200000000000071
:1000200000000000000000000000000027020000A7
:1000300029020000000000002B0200005102000015
:100040002F0200002F0200002F0200002F020000EC
:100050002F0200002F0200002F0200002F020000DC
:100060002F0200002F0200002F0200002F020000CC
:100070002F0200002F0200002F0200002F020000BC
:100080002F0200002F0200002F0200002F020000AC
:100090002F0200002F0200002F0200002F0200009C
:1000A0002F0200002F0200002F0200002F0200008C
:1000B0002F0200002F0200002F0200002F0200007C
:1000C0002F0200002F0200002F02000000F002F8B3
:1000D00000F090F80AA090E8000C82448344AAF152
:1000E0000107DA4501D100F085F8AFF2090EBAE850
:1000F0000F0013F0010F18BFFB1A43F0010318475C
:100100008C460000AC460000103A24BF78C878C185
:10011000FAD8520724BF30C830C144BF04680C600D
:10012000704700000023002400250026103A28BF55
:1001300078C1FBD8520728BF30C148BF0B60704759
:100140006E2902F0CD86702903F00F80662904F035
:100150009B82652904F09882672904F095826129C1
:1001600004F0948203681B0A28BF41F080016929CA
:1001700002F07A86642902F07786752902F0748687
:100180006F2902F09C87782902F0DB87E92902F0C9
:100190003787E42902F03487F52902F03187EF2907
:1001A00002F09987F82902F0DA870368DB0928BF93
:1001B00041F08001632903F0DD84732903F0E284B8
:1001C000E32903F0ED84F32903F0F2840020704763
:1001D0001FB503F03FFD04000020002104F03EFAAB
:1001E000401C60600020002104F022FAE0601FBD86
:1001F00010B510BD03F000FD1146FFF7E9FF02F056
:10020000D0FC03F0DDFD03B4FFF7F2FF03BC03F005
:1002100025FE00000948804709480047FEE7FEE741
:10022000FEE7FEE7FEE7FEE7FEE7FEE7FEE7FEE7A6
:1002300004480549034A054B704700002D0400009F
:10024000CD000000480300104805001048030010CE
:100250001C480068401C1B490860704730B51A48AC
:1002600000684FF47A72B0FBF2F0411EB1F1807F6A
:1002700000D31DE021F07F40401E4FF0E02250618E
:1002800050171F22002807DAD3061D0E0F4B00F06F
:100290000F04241F1D5503E0D3061C0E0C4B1C54E9
:1002A00000BF00204FF0E02290610720106100BFE6
:1002B00030BD044A116800BF024A1268521A8242D5
:1002C000FAD37047580000100000001018ED00E04D
:1002D00000E400E01CB50C46064B7B4469460090E8
:1002E000204602F016FE04460020694602F024FE75
:1002F00020461CBD5B2C000070470000FFFFFFFF85
:1003000097480068C0F3016003285DD194488430A9
:10031000006800F0030030B1012820D0022839D055
:10032000032850D100E000BF8D480068C0F30E00E4
:10033000401C40008B49484389498839D1F88810CE
:10034000C1F30741491CB0FBF1F185487C300068DE
:10035000C0B2401CB1FBF0F08349086033E0804834
:100360000068C0F30E00401C4000804948437C49AF
:100370008839D1F88810C1F30741491CB0FBF1F16D
:1003800077487C300068C0B2401CB1FBF0F0764981
:10039000086018E072480068C0F30E00401C0104B9
:1003A0006F488838D0F88800C0F30740401CB1FB84
:1003B000F0F16B487C300068C0B2401CB1FBF0F03B
:1003C0006949086000BF30E065488430006800F08B
:1003D000030030B1012810D0022819D0032823D1FE
:1003E00000E000BF5E487C300068C0B2401C5D4940
:1003F000B1FBF0F05C49086016E059487C300068B9
:10040000C0B2401C5949B1FBF0F0574908600BE0FD
:1004100053487C300068C0B2401C4FF40041B1FB2F
:10042000F0F05149086000BF00BF704720205049DC
:1004300008604B488838D0F8A00100F0200030B1A7
:1004400000BF4B48006800F040000028F9D00320AE
:1004500043497C310860002041498839C1F8A8012E
:1004600043490C31086001203D498431086041480E
:100470003B49091F0860AA203949091D0860552019
:1004800008600120364908390860AA203449091D4E
:100490000860552032498839C1F88C0000BF3048C7
:1004A000006800F080600028F9D003202C4908394A
:1004B0000860AA202A498839C1F88C0055202849AB
:1004C000091D086000BF2648006800F04070002841
:1004D000F9D0232022491C310860AA2020498839FC
:1004E000C1F8AC0055201E492431086001201C4988
:1004F00018310860AA201A4924310860552018498B
:100500008839C1F8AC0000BF15482030006800F4FD
:1005100080600028F8D00320114918310860AA2013
:100520000F498839C1F8AC0055200D4924310860C5
:1005300000BF0B482030006800F440700028F8D05D
:100540000D4807493C310860002005498839C1F849
:10055000C80143F23A00086000200849086070476B
:1005600088C00F4000093D0000000010001BB700CC
:10057000A0C10F4063000500DE87280408ED00E0FD
:1005800001460020052912D2DFE801F00305080B1F
:100590000E00FB480CE0FA48203009E0F8484030F3
:1005A00006E0F748603003E0F548803000E000BF27
:1005B00000BF704701460020052912D2DFE801F094
:1005C0000305080B0E00EE480CE0ED48203009E072
:1005D000EB48403006E0EA48603003E0E84880300D
:1005E00000E000BF00BF704701460020052912D27D
:1005F000DFE801F00305080B0E00E1480CE0E048DD
:10060000203009E0DE48403006E0DD48603003E09D
:10061000DB48803000E000BF00BF70472DE9F041AB
:1006200007460D4616463846FFF7AAFF04463CB17A
:100630001EB120682843206002E02068A8432060A3
:10064000BDE8F08170B506460C463046FFF798FFCE
:10065000054605B1AC6170BD70B506460C46304626
:10066000FFF78EFF054605B1EC6170BD70B505461C
:100670002846FFF785FF04460CB1606970BD002075
:10068000FCE718B912B9BF4B196017E0022804D172
:100690001AB9BC4B2033196010E028B9012A03D1E4
:1006A000B84B1B1D196009E0022805D1012A03D1AE
:1006B000B44B2433196001E000BFFEE770470346E6
:1006C0003BB932B9AF480C380068C84000F00100AF
:1006D0007047022B07D132B9AA4814300068C840CD
:1006E00000F00100F4E743B9012A06D1A548083813
:1006F0000068C84000F00100EAE7022B08D1012A97
:1007000006D1A04818300068C84000F00100DFE7BB
:1007100000BFFEE718B99B4A121F116007E00228CC
:1007200003D1984A1C32116001E000BFFEE7704718
:1007300070B504460D461646324629462046FFF758
:100740006DFF70BD70B504460D4629462046FFF783
:1007500079FF70BD70B504460D4629462046FFF767
:100760007BFF70BD10B504462046FFF77FFF10BD2C
:1007700070B504460D461646324629462046FFF718
:1007800080FF70BD70B504460D46164632462946B8
:100790002046FFF794FF70BD10B503460C46214676
:1007A0001846FFF7B7FF10BD2DE9F04107460D468B
:1007B00016463846FFF7E4FE04463CB11EB12069F8
:1007C0002843206102E02069A8432061BDE8F08150
:1007D0002DE9F04180460E4615461F464046FFF77C
:1007E000E9FE04468CB147B11EB1608828436080A1
:1007F0000BE020882843208007E01EB16088A843D2
:10080000608002E02088A8432080BDE8F0812DE9C7
:10081000F04180460E4615461F464046FFF7CAFE89
:1008200004468CB147B11EB1608A284360820BE058
:10083000208A2843208207E01EB1608AA843608294
:1008400002E0208AA8432082BDE8F0812DE9F04132
:1008500007460E4614463846FFF7ACFE05461DB166
:100860000EB16C8300E02C83BDE8F0812DE9F041EE
:1008700007460E4614463846FFF79CFE05461DB156
:100880000EB1EC8300E0AC83BDE8F08170B50646A4
:100890000D463046FFF78EFE044624B10DB1E08AC6
:1008A00070BDA08AFCE70020FAE72DE9F041804600
:1008B0000C4616461F464046FFF796FE05465DB1BC
:1008C0002FB1032C08DC285D3043285504E0032CAD
:1008D00002DC285DB0432855BDE8F0812DE9F041E8
:1008E00080460C4616461F464046FFF77DFE0546ED
:1008F0009DB14FB1032C10DC05F11000005D3043B9
:1009000005F11001085508E0032C06DC05F1100084
:10091000005DB04305F110010855BDE8F0812DE9F7
:10092000F04107460C4615463846FFF75DFE064681
:1009300026B1032C02DC06F118000555BDE8F08154
:100940002DE9F04107460C4615463846FFF74CFEA8
:10095000064626B1032C02DC06F11C000555BDE855
:10096000F08170B506460C463046FFF73DFE054661
:1009700055B1032C08DC05F11400005D70BD0000CA
:1009800000C00920908002400020F7E713B504461C
:1009900001231A4601A9204600F0DEFC1CBD38B533
:1009A00004460020009001231A466946204600F0C4
:1009B0001FFD9DF8000038BD70B506460D462C465B
:1009C00004E014F8011B3046FFF7E0FF2078002810
:1009D000F7D170BD70B504460D4629462046FFF795
:1009E000EBFFEBA12046FFF7E7FF70BD2DE9F041DB
:1009F00005460C460A2094FBF0F100FB1140C6B2FC
:100A00000A2094FBF0F00A2190FBF1F201FB1200A6
:100A1000C7B2642094FBF0F090FBF1F201FB1200EE
:100A200000F0FF0808F13000C1B22846FFF7AEFF22
:100A300007F13000C1B22846FFF7A8FF06F13000E9
:100A4000C1B22846FFF7A2FFBDE8F0812DE9F047CB
:100A500005460C460A2094FBF0F100FB1140C6B29B
:100A60000A2094FBF0F00A2190FBF1F201FB120046
:100A7000C7B2642094FBF0F090FBF1F201FB12008E
:100A800000F0FF084FF47A7094FBF0F090FBF1F265
:100A900001FB120000F0FF0942F2107094FBF0F02D
:100AA00090FBF1F201FB120000F0FF0A0AF13000A6
:100AB000C1B22846FFF76AFF09F13000C1B22846EB
:100AC000FFF764FF08F13000C1B22846FFF75EFF70
:100AD00007F13000C1B22846FFF758FF06F1300099
:100AE000C1B22846FFF752FFBDE8F0872DE9F34F6A
:100AF00083B00C460A20B4FBF0F100FB1145B4FBB7
:100B0000F0F00A21B0FBF1F201FB12066420B4FB05
:100B1000F0F0B0FBF1F201FB12074FF47A70B4FB76
:100B2000F0F0B0FBF1F201FB120842F21070B4FBDE
:100B3000F0F0B0FBF1F201FB12099648B4FBF0F0C3
:100B4000B0FBF1F201FB120A9348B4FBF0F0B0FBEA
:100B5000F1F201FB120B9148B4FBF0F0B0FBF1F2A3
:100B600001FB120002908E48B4FBF0F0B0FBF1F2F2
:100B700001FB120001908B48B4FBF0F0B0FBF1F2E6
:100B800001FB1200009000983030C1B20398FFF7CB
:100B9000FDFE01983030C1B20398FFF7F7FE0298CE
:100BA0003030C1B20398FFF7F1FE0BF13000C1B253
:100BB0000398FFF7EBFE0AF13000C1B20398FFF78C
:100BC000E5FE09F13000C1B20398FFF7DFFE08F13E
:100BD0003000C1B20398FFF7D9FE07F13000C1B26F
:100BE0000398FFF7D3FE06F13000C1B20398FFF778
:100BF000CDFE05F13000C1B20398FFF7C7FE05B086
:100C0000BDE8F08F2DE9F04107460D4666A1384654
:100C1000FFF7D2FE012600BFB00045FA00F000F059
:100C20000F04092C02DD04F1370001E004F130006B
:100C3000C1B23846FFF7AAFE301EA6F10101CEB2BE
:100C4000EAD1BDE8F0812DE9F04107460D4656A1F5
:100C50003846FFF7B1FE032600BFB00045FA00F0AA
:100C600000F00F04092C02DD04F1370001E004F16B
:100C70003000C1B23846FFF789FE301EA6F10101EF
:100C8000CEB2EAD1BDE8F0812DE9F04107460D462C
:100C900045A13846FFF790FE072600BFB00025FAB1
:100CA00000F000F00F04092C02DD04F1370001E030
:100CB00004F13000C1B23846FFF768FE301EA6F1DD
:100CC0000101CEB2EAD1BDE8F0810FB408B503A8A6
:100CD00000903648009A0299FFF7FCFA0020009035
:100CE00032493348334A1268904701B05DF814FB2B
:100CF0001FB501208DF8020000208DF804008DF84A
:100D0000030002208DF8010000208DF800006846E5
:100D100001F008F803208DF80100684601F002F8A0
:100D200002A800F0D7FA4FF4E130029002A920485F
:100D300000F03CF901211E4800F02DFAAFF2873097
:100D40001C490860AFF273301B490860AFF2C33032
:100D50001A490860AFF2531019490860AFF2191030
:100D600018490860AFF2DF0017490860AFF283301E
:100D700016490860AFF22B3015490860AFF2932096
:100D800014490860AFF2E930134908601FBD000044
:100D90000A0D0000A086010040420F0080969800D6
:100DA00000E1F50500CA9A3B307800005C000010B5
:100DB00000C0004004000010080000100C000010EB
:100DC0001C00001020000010240000101000001073
:100DD0001400001018000010280000102DE9F04F3A
:100DE0008BB00446894600200990F748844204D11C
:100DF000062000F0EBFF074616E0F448844204D1D9
:100E0000082000F0E3FF07460EE0F148844204D1D9
:100E1000302000F0DBFF074606E0EE48844203D1B5
:100E2000322000F0D3FF07464FF0FF3B0020079031
:100E3000069000252E464FF001084DE00020089056
:100E400040E00898404400FB09FC0020010741EA0B
:100E5000171138070022A0FB083E01FB08E100FB48
:100E600002106246CDE900300023DDE9000101F007
:100E70001FFFCDE9040104980390DDF814A0039846
:100E8000B0F1004F04D90398404203900AF1010ADF
:100E9000BAF1000F02D0BAF5803F00D90FE00398F5
:100EA00058450BD2DDF80CB000265546089807903F
:100EB000CDF81880BBF1000F00D106E000BF089804
:100EC000401C089008984045BBD300BFBBF1000F01
:100ED00000D104E008F10108B8F10F0FAED900BF4E
:100EE000002185EA01007140084302D10BB0BDE842
:100EF000F08F3809069900FB01FC08460799084461
:100F00000021A0FB052301FB053100FB0610034671
:100F1000CDE900206046002101F0CAFE029002984F
:100F2000814503D90298A9EB000B02E00298A0EBDF
:100F3000090B64200BFB00F0B0FBF9FBBBF1030FC6
:100F400032D2A248844216D1207B40F08000207328
:100F5000280A40EA066020712570207B00F07F009F
:100F60002073F021069801EA0010079901F00F01A3
:100F70000843A06216E0207B40F080002073280A1E
:100F800040EA066020712570207B00F07F0020730E
:100F9000F021069801EA0010079901F00F010843BB
:100FA00084F828000120099009989FE770B504464D
:100FB0000D468548844208D08448844205D0844840
:100FC000844202D08348844200D103E0C92182A038
:100FD00001F0FDFD687940B16879012805D0687994
:100FE000022802D06879032800D103E0CA217AA040
:100FF00001F0EDFDA87910B1A879012800D103E036
:10100000CB2175A001F0E3FD287958B1287901289A
:1010100008D02879022805D02879032802D0287919
:10102000042800D103E0CC216BA001F0D0FD66487C
:10103000844203D10121082000F0E5FE6348844288
:1010400003D10121102000F0DEFE6148844203D16B
:101050000121080600F0D7FE5E48844203D1012139
:10106000480600F0D0FE5948844223D10720207260
:101070000020207200E02678207D00F0010000288A
:10108000F9D1802084F8300000BF207D00F02000DE
:101090000028FAD0002084F83000606020732062BD
:1010A000207484F84C0084F8540084F85000267EA4
:1010B000267D1AE0072020720020207200E02678AA
:1010C000207D00F001000028F9D1802084F8300054
:1010D00000BF207D00F020000028FAD0002084F816
:1010E0003000606020732062267D3A48844202D13D
:1010F000002084F8240020462968FFF76FFE33485B
:10110000844203D1207B00F0C00602E0207B00F087
:10111000C006687930B1012806D0022807D003281C
:1011200008D108E000BF09E046F0010606E046F0FD
:10113000020603E000BF46F0030600BF00BF2879A7
:10114000C0B146F008062879012806D0022806D04A
:10115000032807D004280BD107E000BF09E046F0C0
:10116000100606E046F0200603E046F0300600E0F8
:1011700000BF00BFA87928B1012802D146F00406BB
:1011800001E000BF00BF00BF1048844201D12673B8
:1011900000E0267370BD70B504460D460A488442CF
:1011A00008D00A48844205D00948844202D0094840
:1011B000844200D104E040F2EA3107A001F007FDCB
:1011C0000DB1012D26D12BE000C0004000000140F0
:1011D0000080094000C009402E2E5C4C696272619B
:1011E000726965735C4C4350313736385F537464B1
:1011F0005065726970685F4472697665725C736F7E
:10120000757263655C6C7063313778785F75617295
:10121000742E630040F2EB31AFF2440001F0D7FCD2
:10122000012D10D1F948844206D194F8300040F0E5
:10123000800084F8300014E094F8300040F0800022
:1012400084F830000DE0F148844205D194F8300074
:10125000002084F8300004E094F83000002084F886
:10126000300070BD10B50446E948844208D0E74814
:10127000844205D0E748844202D0E748844200D146
:1012800005E040F29511AFF2B00001F0A0FC0021A2
:101290002046FFF780FFDE48844203D1002108206A
:1012A00000F0B1FDD948844203D10021102000F0A4
:1012B000AAFDD848844204D100214FF0807000F08C
:1012C000A2FDD548844204D100214FF0007000F007
:1012D0009AFD10BD4FF416510160032141710021A8
:1012E00001718171704770B504460D46C84884424B
:1012F00008D0C648844205D0C648844202D0C648B9
:10130000844200D105E040F2D911AFF2341001F06F
:101310005EFCBE48844201D1257000E0257070BD9E
:1013200010B50446BA48844208D0B848844205D073
:10133000B848844202D0B848844200D105E04FF456
:10134000F971AFF26C1001F042FCB048844201D157
:10135000207810BD2078FCE72DE9FF5F80468A46A3
:10136000934657465C460398012825D1002520E086
:101370004FF0FF3905E0B9F1000F00D107E0A9F106
:10138000010998F8140000F020000028F3D000BFF5
:10139000B9F1000F00D10EE0102607E017F8011B8D
:1013A0004046FFF7A0FF761E641E6D1C0EB1002C98
:1013B000F4D1002CDCD117E0002512E098F81400DD
:1013C00000F0200000B90EE0102607E017F8011B1E
:1013D0004046FFF788FF641E761E6D1C0EB1002C80
:1013E000F4D1002CEAD100BF284604B0BDE8F09F3C
:1013F0002DE9F05F0746894692469B464E46554684
:10140000BBF1010F1ED1002419E04FF0FF3805E0B9
:10141000B8F1000F00D106E0A8F10108387D00F016
:1014200001000028F4D000BFB8F1000F00D108E09F
:101430003846FFF775FF06F8010B6D1E641C002D82
:10144000E3D110E000240BE0387D00F0010000B98A
:1014500008E03846FFF764FF06F8010B641C6D1EB8
:10146000002DF1D100BF2046BDE8F09F10B5044625
:101470006748844208D06548844205D06548844264
:1014800002D06548844200D105E04FF42171AFF2EB
:10149000B82001F09CFB5D48844204D1207B40F0E1
:1014A0004000207303E0207B40F04000207310BD1B
:1014B0002DE9F04104460D4617465548844208D0B0
:1014C0005248844205D05348844202D05248844254
:1014D00000D105E040F2AB21AFF2043001F077FB20
:1014E0000FB1012F00D105E04FF42B71AFF218308E
:1014F00001F06DFB072D15D2DFE805F00406080AA0
:101500000C0E110001260DE002260BE0042609E076
:10151000082607E0802605E04FF4807602E04FF4CD
:10152000007600BF00BF3948844214D15DB1012D5F
:1015300009D0022D07D0052D05D0062D03D0032D8F
:1015400001D0042D00D116E04FF43271AFF27830A3
:1015500001F03DFB0FE03DB1012D05D0022D03D080
:10156000052D01D0062D00D105E04FF43371AFF207
:10157000983001F02CFB012F0AD12448844203D17A
:1015800060683043606013E06068304360600FE083
:101590001E48844206D1606840F28F31B143084052
:1015A000606005E0606840F20731B1430840606068
:1015B000BDE8F08110B504461548844208D01348B0
:1015C000844205D01348844202D01348844200D19B
:1015D00005E040F2FA21AFF2004001F0F8FA0B48C2
:1015E000844201D1007D10BD207DFCE710B504468A
:1015F0000748844208D00548844205D00548844203
:1016000002D00548844209D10EE0000000000140EC
:1016100000C000400080094000C0094040F2113184
:10162000AFF24C4001F0D3FAA06840F2CF3108404D
:1016300010BD0146087D00F0400008B10020704751
:101640000120FCE770B506460C460025F7488642A7
:1016500008D0F748864205D0F648864202D0F648C0
:10166000864200D105E040F23731AFF2944001F0FC
:10167000AEFAE07840B1E078012805D0E0780228A1
:1016800002D0E078032800D105E04FF44E71AFF2AC
:10169000B84001F09CFAA07810B1A078012800D1E0
:1016A00005E040F23931AFF2D04001F090FA2078F5
:1016B00010B12078012800D105E040F23A31AFF2B4
:1016C000E84001F084FA607810B16078012800D118
:1016D00005E040F23B31AFF2005001F078FA45F0FE
:1016E0000105E07830B1012806D0022807D0032890
:1016F00008D108E000BF09E045F0400506E045F0EC
:10170000800503E000BF45F0C00500BF00BF607862
:10171000012801D145F004052078012801D145F0C8
:101720000205A078012801D145F00805C04886428D
:1017300003D105F0CF00307202E005F0CF00307227
:1017400070BD00218170C17001210170417070472E
:101750002DE9F04104460F461546B448844208D0AE
:10176000B348844205D0B348844202D0B248844290
:1017700000D105E040F29231AFF2A45001F027FA17
:101780000DB1012D00D105E040F29331AFF2B85018
:1017900001F01DFA0026012D09D13878012801D168
:1017A00046F002067878012801D146F00406A048E8
:1017B000844215D1012D10D1207B40F08000207390
:1017C000002020702071207B20F0800020731020EA
:1017D000A06246F00100206218E00020206215E0BF
:1017E000012D11D1207B40F080002073002020705B
:1017F0002071207B20F080002073102084F82800C6
:1018000046F00100206201E000202062BDE8F08186
:1018100070B504460D468548844208D08448844209
:1018200005D08448844202D08348844200D105E038
:1018300040F2D331AFF2606001F0C9F97C488442D4
:1018400003D1206A2843206202E0206A28432062F4
:1018500070BD70B504460D467748844200D105E05E
:1018600040F21441AFF2906001F0B1F90DB1012DD9
:1018700000D105E040F21541AFF2A46001F0A7F9F4
:10188000012D06D194F8240040F0020084F82400D1
:1018900006E02DB994F8240000F03D0084F82400FF
:1018A00070BD70B504460D466348844200D105E022
:1018B00040F22C41AFF2E06001F089F90DB1012D49
:1018C00000D105E040F22D41AFF2F46001F07FF964
:1018D000012D06D194F8240040F0010084F8240082
:1018E00005E094F8240000F03E0084F8240070BD68
:1018F0002DE9F04105460C464F48854200D105E0F0
:1019000040F24D41AFF2307001F061F96CB1012C41
:101910000BD0022C09D0032C07D0042C05D0052CA9
:1019200003D0062C01D0072C00D105E040F24E4137
:10193000AFF25C7001F04BF96007870E95F8240058
:1019400020F0380647F00400064306F03F0085F813
:101950002400BDE8F0812DE9F04104460D4616460D
:1019600000273348844200D105E040F26D41AFF2D8
:10197000987001F02CF90DB1012D00D105E040F275
:101980006E41AFF2AC7001F022F90EB1012E00D120
:1019900005E040F26F41AFF2C07001F018F915B1E7
:1019A000012D04D101E0012702E0022700E000BF81
:1019B00000BF012E03D1207C3843207404E0207C3A
:1019C000F321B94308402074BDE8F0812DE9F041CE
:1019D00004460D4617461648844200D105E040F201
:1019E0009541AFF60C0001F0F2F81DB1012D01D0C8
:1019F000022D00D105E040F29641AFF6240001F03F
:101A0000E6F80FB1012F00D105E040F29741AFF6A3
:101A1000380001F0DCF825B1012D04D0022D0FD1E2
:101A20000CE010260DE040260BE0000000C0004056
:101A3000000001400080094000C00940802600E00D
:101A400000BF00BF012F03D1207C3043207404E08D
:101A5000207CF321B14308402074BDE8F08110B52B
:101A600004467948844200D105E04FF49861AFF60E
:101A7000980001F0ACF8207E10BD70B506460C460B
:101A80007148864200D105E040F2D441AFF6B8007B
:101A900001F09DF8A07810B1A078012800D105E0F0
:101AA00040F2D541AFF6D00001F091F8E07810B1E6
:101AB000E078012800D105E040F2D641AFF6E80019
:101AC00001F085F8E079FF2800DA05E040F2D7411F
:101AD000AFF6FC0001F07BF8607910B16079012865
:101AE00000D105E04FF49B61AFF6141001F06FF8E0
:101AF000207910B12079012800D105E040F2D941C8
:101B0000AFF62C1001F063F8A079FF2800DA05E0A9
:101B100040F2DA41AFF6401001F059F8207810B1E8
:101B20002078012800D105E040F2DB41AFF65810E3
:101B300001F04DF8607810B16078012800D105E01F
:101B400040F2DC41AFF6701001F041F80025E0787A
:101B500001280ED145F010056079012801D145F02A
:101B600020052079012801D145F00805E07986F8A3
:101B700054002078012801D145F00105A078012802
:101B800004D145F00405A07986F85000607808B9C2
:101B900045F0020505F03F0086F84C00307B40F030
:101BA0003800307370BD012906D190F84C2022F026
:101BB000020280F84C2005E090F84C2042F002022E
:101BC00080F84C2070472DE9F0470446894692463C
:101BD0001F46A7B1257BA84628F0100884F80C8082
:101BE0000123524649462046FFF7B6FB064600BF92
:101BF000207D00F040000028FAD025730CE001237E
:101C0000524649462046FFF7A7FB064600BF207D07
:101C100000F040000028FAD03046BDE8F08713B548
:101C2000044601231A4601A92046FFF7CCFF1CBD3C
:101C300070B504460D461646002332462946204616
:101C4000FFF7C1FF70BD000000000140F0B5044681
:101C50000B461546194660003B4A102901D310393E
:101C6000401C52F820604FEA410C032707FA0CF79A
:101C7000BE4342F8206052F820604F0005FA07F793
:101C80003E4342F82060F0BDF0B504460B461546D1
:101C9000194660002C4A4032102901D31039401CEB
:101CA00052F820604FEA410C032707FA0CF7BE43B5
:101CB00042F8206052F820604F0005FA07F73E43D3
:101CC00042F82060F0BD30B50B461F496831012A4B
:101CD00007D151F8204001259D402C4341F8204078
:101CE00006E051F8204001259D40AC4341F82040DA
:101CF00030BD012806D11449896A41F00801124A11
:101D0000916206E028B91049896A21F008010E4A5B
:101D100091627047012800D1052201B90A220A4BBD
:101D2000DA67704710B50446A27861782078FFF72B
:101D30008DFFE27861782078FFF7A6FF227961783D
:101D40002078FFF7C0FF10BD00C0024010B50A4662
:101D5000202801D2034601E0A0F1200319462028E3
:101D600010D2454B1B6803248C40A343434CC4F85A
:101D7000A831414B1B6802FA01F423433F4CC4F8DD
:101D8000A83111E03C4B1B1D1B6803248C40A3436E
:101D90003A4CC4F8AC31384B1B1D1B6802FA01F4F5
:101DA0002343364CC4F8AC3110BD0146202903D280
:101DB0000A46314B186804E0A1F120022E4B1B1D8E
:101DC000186820FA02F303F00300704770B5064666
:101DD0002B4804683046FFF7E8FF054635B1012D72
:101DE00006D0022D06D0032D08D105E0042505E01C
:101DF000012503E0022501E0082500BF00BFB4FB78
:101E0000F5F4204670BD012909D11C4AC43212687C
:101E10001C4B03401A43194BC3F8C42009E041B9D5
:101E2000164AC4321268174B83431A40134BC3F847
:101E3000C420704700201149C031086030BF70478E
:101E400004201149086008200C49C031086030BFE7
:101E5000704704200C49086009200849C031086017
:101E600030BF704704200849086003200349C0318F
:101E7000086030BF70470000A8C10F4000C00F408D
:101E800000000010DEF7EFEF10ED00E00146F7482C
:101E9000814201D100207047F548814201D10120E3
:101EA000F9E7F448814201D10220F4E74FF0FF3016
:101EB000F1E70146202008600820886100BF08681B
:101EC00000F008000028FAD020208861486800F05F
:101ED000F8007047016801F0200109B120218161FB
:101EE000102101600821816170470246106800F0EE
:101EF000200008B120209061C8B290600820906155
:101F000000BF106800F008000028FAD0506800F008
:101F1000F80070470346012A02D10420186001E04E
:101F2000042098610820986100BF186800F008003C
:101F30000028FAD098680870586800F0F8007047D8
:101F400070B504460E46C948844205D0C84884424C
:101F500002D0C848844200D103E0DF21C6A000F0CF
:101F600036FEC248844205D10E20FFF72FFFB0FB9A
:101F7000F6F510E0BE48844205D12620FFF726FF83
:101F8000B0FBF6F507E0BB48844204D13420FFF7EC
:101F90001DFFB0FBF6F5680820612069281A606112
:101FA00070BD70B504460D46B048844205D0B048B7
:101FB000844202D0AF48844200D104E040F20711CD
:101FC000ADA000F004FEA948844208D10121802080
:101FD000FFF719FF02210E20FFF7B8FE18E0A44812
:101FE000844208D10121C804FFF70DFF02212620F9
:101FF000FFF7ACFE0CE09F48844208D1012188061F
:10200000FFF701FF02213420FFF7A0FE00E070BDC2
:1020100029462046FFF794FF6420A06100BFF6E741
:1020200010B504469148844205D09148844202D0BC
:102030009048844200D104E040F237118EA000F0B5
:10204000C6FD4020A0618948844204D1002180203F
:10205000FFF7D9FE10E08648844205D100214FF4F5
:102060000020FFF7D0FE07E08248844204D100211F
:102070004FF08060FFF7C7FE10BD70B504460D46F7
:102080000DB1012D00D104E04FF4AC717AA000F045
:102090009EFD7648844205D07548844202D075483A
:1020A000844200D104E040F2591173A000F08FFD8A
:1020B000012D02D14020206001E04020A06170BDD0
:1020C00070B504460D46A5B16848844203D10A2084
:1020D00000F08CFC21E06648844203D10B2000F024
:1020E00085FC1AE06348844217D10C2000F07EFC86
:1020F00013E05E48844203D10A2000F082FC0CE029
:102100005B48844203D10B2000F07BFC05E059487A
:10211000844202D10C2000F074FC70BD2DE9F04126
:1021200005462846FFF7B2FE0646624850F836409C
:10213000686800F0F8076762F82F03D10820A861EB
:10214000BDE8F0815B4800EBC6004068002857D12D
:10215000202F48D006DC082F0BD0102F0AD0182FC4
:102160004CD115E0282F14D0302F3DD0382F45D139
:102170003FE000BF2020A861606838B1A06828B1A6
:1021800020684000A8600820A86100E012E036E066
:1021900000BFD4E9021088420BD2606848B1E16800
:1021A0006068405CA860E068401CE0600820A861AE
:1021B00018E000BF01203F4901EBC601486060699B
:1021C00058B1206948B1A06830B1606820B12020C2
:1021D00028600C20A86105E031E0606A40F480606E
:1021E0006062B6E00BE000BF606A40F400706062BD
:1021F000A0E0606A40F48070606200BF9AE0B5E0E1
:102200002C4800EBC60040680128F8D1402F24D0AC
:1022100006DC082F0BD0102F0AD0382F7DD183E099
:10222000482F7CD0502F4CD0582F76D163E000BF80
:102230002020A861206950B1606940B100BF012130
:10224000206801EB4000A8600820A86104E0606AF3
:1022500040F4806060627CE087E0D4E90501401EC4
:10226000814229D20420286028E0000000C00140FB
:1022700000C0054000000A402E2E5C4C696272616D
:10228000726965735C4C4350313736385F53746400
:102290005065726970685F4472697665725C736FCD
:1022A000757263655C6C7063313778785F6932632F
:1022B0002E630000600200100420A8610820A861BD
:1022C00053E0206950B1D4E90510884206D2A868CD
:1022D000A26921698854A069401CA061D4E9050164
:1022E000401E814202D20420286001E00420A8613F
:1022F0000820A86139E0206950B1D4E9051088426E
:1023000006D2A868A26921698854A069401CA0610E
:10231000606A40F4806060621BE00AE0FFE7606A88
:1023200040F40070606205E0606A40F480706062B2
:1023300000BF00BFD4E90710884209D20020E06046
:10234000202028600C20A861206A401C20620BE03D
:1023500000BF00212846FFF7B3FE2846FFF7BAFD6D
:102360000120F74941F8260000BF00BF00BFE7E6A3
:102370002DE9F04104462046FFF788FD8046F148EC
:1023800050F83850606800F0F806AE61F82E03D1BE
:102390000820A061BDE8F08106F00700002868D1A0
:1023A000F0100C38142864D2DFE800F00F631063DB
:1023B000152816292C4763485A6363636363630ACD
:1023C000042020600820A0615FE000BF042020609E
:1023D0000820A06159E000BFD5E90410884208D266
:1023E000E86830B1A0686A69E96888546869401C87
:1023F0006861042020600820A06146E000BF08203A
:10240000A06142E000212046FFF75AFE0820A061AB
:1024100047030FE0206800F0080020B101212046AA
:10242000FFF74EFE07E07F1E27B9A86940F48060E1
:10243000A8611FE0EEE700BF27E000BFD5E901106B
:10244000884208D2286830B1A9682868405CA0603A
:10245000A868401CA860042020600820A06114E047
:10246000042020600820A061A86940F48060A86171
:1024700000E000BF00212046FFF722FE2C20A061D3
:102480000120B14941F8280000BF00BF00BF81E72B
:102490002DE9F84306460C461746D4F80480D4F8D4
:1024A00010900020E060A0616062002F7ED1206269
:1024B00000BFD4F80480D4F810900020E060A06140
:1024C00000253046FFF7F5FC0546082D0BD0102DF2
:1024D00009D0206A401C2062D4E90710884201D943
:1024E0006562ABE0E5E7A068A0B3606890B32078D0
:1024F0004006010E3046FFF7F8FC0546182D0BD0BC
:10250000206A401C2062D4E90710884203D945F4B0
:102510000070606292E0CCE718E098F80010304656
:10252000FFF7E3FC0546282D0BD0206A401C2062F3
:10253000D4E90710884203D945F4007060627DE059
:10254000B7E708F10108E068401CE060D4E9021038
:102550008842E2D3A068B8B16068A8B1606998B158
:10256000206988B13046FFF7A4FC0546082D0BD042
:10257000102D09D0206A401C2062D4E9071088423F
:1025800001D965625AE094E76069002850D020695B
:1025900000284DD02078012202EB4000C1B2304625
:1025A000FFF7A3FC0546402D0DD000E04BE0206A6C
:1025B000401C2062D4E90710884203D945F400701A
:1025C00060623BE075E72FE0D4E90501401E8142DF
:1025D00011D2012269463046FFF79CFC0546502D7A
:1025E0001BD0206A401C2062D4E90710884201D920
:1025F000656223E05DE7002269463046FFF78AFC0A
:102600000546582D09D0206A401C2062D4E90710E5
:10261000884201D9656211E04BE79DF8000009F896
:10262000010BA069401CA061D4E905108842CBD3FE
:102630003046FFF74FFC0120BDE8F8833046FFF736
:1026400049FC0020F8E7012F1AD13046FFF71EFCA5
:10265000C0B200903B489DF8001040F83140002087
:1026600038499DF8002001EBC20148600820B061A4
:102670002020306001213046FFF722FD0120DBE7FA
:102680000020D9E72DE9F84F04460D461646D5F847
:102690000090D5F80CA00020A8606861A861002E09
:1026A0006FD1042020602820A06100200090834684
:1026B00075E0206800F00800002867D00020009036
:1026C000606800F0F80707F0070000285AD1F810FA
:1026D0000C38142856D2DFE800F00F551055152796
:1026E00016282B39553A4B5555555555550A042042
:1026F00020600820A06148E000BF0420206008207E
:10270000A06142E000BFD5E90410884207D2E86822
:1027100028B1A0680AF8010B6869401C68610420B0
:1027200020600820A06130E000BF0820A0612CE0FC
:102730000820A061012000904FF0000B25E0000070
:1027400078020010600200108402001000BFD5E97A
:102750000110884207D2286828B119F8010BA0603F
:10276000A868401CA860042020600820A0610CE03C
:10277000042020600820A061012000904FF0000B91
:1027800003E01AE00820A06112E008E0009830B1F0
:1027900058460BF1010BB0F5803F00D900E088E707
:1027A0000420A06147F48060A8610120BDE8F88F93
:1027B0000420A061AF610020F8E7012E15D120466A
:1027C000FFF764FB8046934840F838500120914958
:1027D00001EBC8014860042020602820A06101218D
:1027E0002046FFF76DFC0120E0E70020DEE770B532
:1027F00004460D468848844205D08848844202D069
:102800008748844200D105E04FF49461AFF29850BC
:1028100000F0DDF92878002803DB2878032800DCA5
:1028200005E040F2A141AFF2B05000F0D0F9A87835
:1028300010B1A878012800D105E040F2A241AFF222
:10284000C85000F0C4F9A878012800D100E00020A9
:10285000697840EA4100C6B2287830B101280AD030
:1028600002280ED0032818D111E0E660E87800F0C5
:10287000FE00206311E02662E87800F0FE0060634D
:102880000BE06662E87800F0FE00A06305E0A66257
:10289000E87800F0FE00E06300BF00BF70BD70B5D7
:1028A00004460D4616465C48844205D05B48844287
:1028B00002D05B48844200D105E040F2D441AFF23F
:1028C000486000F084F9022D00D000BF00BF0EB1B7
:1028D000012E00D105E040F2D641AFF2646000F075
:1028E00076F9012E03D1E0692843E06104E0E06954
:1028F0000721A9430840E06170BD70B504460D464C
:102900004548844205D04548844202D04448844228
:1029100000D105E04FF49E61AFF2A46000F057F9DA
:102920000DB1012D00D105E040F2F141AFF2B860E8
:1029300000F04DF9012D08D1E06940F00100E0619F
:10294000042020602820A06105E0E06900F0060076
:10295000E0612C20A06100203249086070BD10B5F4
:1029600004462D48844205D02C48844202D02C488D
:10297000844200D105E040F21351AFF2047000F040
:1029800026F9E06AC0B210BD30B503460020082425
:102990009C61DC6A234D2D684C55224C2468641CD4
:1029A000204D2C602C462468944200D3012030BD79
:1029B00070B505462846FFF769FA04461A4850F8EC
:1029C00024600020184941F82400304670BD70B5DD
:1029D00005462846FFF75AFA0446144850F8246082
:1029E0000020124941F82400304670BD00F01F025B
:1029F000012191404209920002F1E022C2F8001147
:102A0000704700F01F0201219140094A430942F832
:102A1000231070476002001000C0014000C0054054
:102A200000000A402C000010780200108402001000
:102A300080E100E010B550206649086066484860B3
:102A4000092088600020086148610320C8610022D5
:102A50006248FFF71DFD012801D1002010BD4FF095
:102A6000FF30FBE710B550205D4908605A484860C8
:102A7000012088605B480861082048610320C86124
:102A800000225648FFF704FD012801D1002010BDA7
:102A90004FF0FF30FBE77CB5FEF72AF952A0FEF7B6
:102AA00014F900208DF804008DF8030002208DF841
:102AB00002000A208DF8010000208DF80000684611
:102AC000FFF730F90B208DF801006846FFF72AF96F
:102AD0004C494248FFF765FA01214048FFF7CDFA1B
:102AE00049A0FEF7F2F8FFF7A5FF401C18B94AA06D
:102AF000FEF7EBF802E04FA0FEF7E7F84FF4801482
:102B000000E0641E002CFCD14FA0FEF7DEF8FFF7BA
:102B1000A9FF401C18B950A0FEF7D7F802E055A055
:102B2000FEF7D3F82F4D2C4E761C08240DE015F837
:102B3000011B16F8012B914203D052A0FEF7C5F8F5
:102B400005E056A0FEF7C1F8641E002CEFD100BFCF
:102B500001207CBD1CB500208DF802008DF801001D
:102B60008DF800006846FFF7DDF801208DF80100C0
:102B70006846FFF7D7F802208DF801006846FFF796
:102B8000D1F803208DF801006846FFF7CBF8012249
:102B90000F210020FDF742FD0F210020FDF752FD1F
:102BA0001CBDFDF75BFBFFF776FFFFF7D3FF0DE0E2
:102BB0000F210020FDF746FD9620FDF77AFB0F213F
:102BC0000020FDF749FD9620FDF773FBF0E700BFFD
:102BD000FEE70000900200104400001000000A40D0
:102BE000BC0200104D00001041543234437878206C
:102BF000746573742070726F636564757265733A7F
:102C00000D0A0000400D030077697274652064614D
:102C100074613A0D0A0000004572726F7220776885
:102C2000696C652073656E64696E672064617461A8
:102C30000D0A000044617461207772697465204F49
:102C40004B200D0A0000000052656164206461742D
:102C5000613A0D0A000000004572726F72207768B9
:102C6000696C652072656164696E67206461746176
:102C70000D0A0000726561642064617461204F4B2D
:102C80000D0A0000566572696679204461746120FE
:102C90006572726F72210D0A00000000566572693C
:102CA00066792044617461204F4B210D0A000000B9
:102CB00053EA020C00F069802DE9F04B4FF000065A
:102CC000002B1FBFB3FA83F503FA05F424FA05F6C7
:102CD0005E4012BF1643B2FA82F502FA05F4C5F15E
:102CE00020051EBF22FA05FC44EA0C04203556EAF2
:102CF000044C4FEA144418BF641C4FF000084FF016
:102D00000009904271EB030C39D3002919BFB1FAC5
:102D100081F701FA07F6B0FA80F700FA07F6C7F173
:102D200020071EBF20FA07FC46EA0C062037B6FB38
:102D3000F4FCA7EB0507103F07F01F0BCBF12006B3
:102D40000CFA0BFB2CFA06F644BFB3460026202FE4
:102D5000A4BF5E464FF0000B5BEA060C08BF4FF0C5
:102D6000010B19EB0B09ABFB027C48EB0608C01BFF
:102D700006FB02CC0BFB03CC71EB0C01C1E70B464D
:102D8000024641464846BDE8F08B13B54FF00000BF
:102D90004FF00001AFF30080BDE81C407047704762
:102DA0007047704770B5044685690068C10601D553
:102DB000302600E02026C00707D070BDD4E90121ED
:102DC00030469047206A401C20626D1EF6D570BDCB
:102DD00070B5044685690078C00707D170BDD4E995
:102DE000012120209047206A401C20626D1EF6D5EC
:102DF00070BD09684A0501D540B27047C905FCD5C8
:102E000000B2704709684A0501D5C0B27047C905CC
:102E1000FCD580B2704770B50C460546012A05D036
:102E20002878800600D5EA69002302E0012305E046
:102E30005B1C934202D2E05C0028F9D1A869E61835
:102E4000C01AA861286A184428622846FFF7AAFF1A
:102E500004E0D5E9012114F8010B9047B442F8D3FE
:102E60002846FFF7B5FF70BD2DE9F0410646002466
:102E700010687529314616A510D0FFF7BAFF002853
:102E800002DA404213A507E031688A0701D512A58E
:102E900002E0490704D511A5012401E0FFF7B2FFC4
:102EA00000210A2206F1240709E0B0FBF2FCB0FB86
:102EB000F2F302FB1C00303078541846491C0028FD
:102EC000F3D123462A463046BDE8F04100F061BA0E
:102ED000000000002D0000002B000000200000007A
:102EE00011680268006A530501D508700AE0D3052D
:102EF00001D5088006E0130603D5C217C1E9000218
:102F000000E008600120704701694A1C02610878EE
:102F1000704700B58FB0CDE9013100210591054919
:102F20007944CDE903101146684600F029F90FB045
:102F300000BD0000E5FFFFFF0A6802F8010B0A6010
:102F4000704700002DE9FF5F15468A460446DFF80A
:102F5000AC80F8440027D8E900103E46CDE90010C7
:102F600010E03AF816106A4602A800F025FE411C4F
:102F700007D02178890603D5E269391891420DD826
:102F80000744761C2078800602D5E069B84205DD4A
:102F9000AE42E6DB3AF816000028E2D1A069C01B79
:102FA000A0612046FFF7FEFED8E90010CDE9001031
:102FB000002017E03AF818106A4602A800F0FCFD5D
:102FC000B0F1FF3F81460BD000250DF1080B05E065
:102FD000D4E901211BF8050090476D1C4D45F7D33E
:102FE00008F10100B0428046E4DB206A38442062E8
:102FF0002046FFF7EDFEBDE8FF9F00003A170000F6
:103000002DE9F0418046D21D22F007020025D2E9C9
:103010000002F52915A614D0011E72F1000106DA8E
:103020000023D0EB030063EB020211A608E0D8F8FE
:1030300000108B0701D50FA602E0490701D50EA6A7
:1030400001251146002408F1240704E000F05CF992
:1030500030323A55641C50EA0102F7D12B46324611
:1030600021464046BDE8F04100F093B90000000061
:103070002D0000002B0000002000000030B40021D3
:1030800000F1240408E002F00705D208303542EAD6
:103090004372DB086554491C52EA0305F3D1046806
:1030A000002310A2250707D5A40600D421B1C469C6
:1030B00001230DA2641EC46130BC00F06AB910B5D2
:1030C000044621461068FFF79DFE02462046BDE8F3
:1030D00010400023D2E7D21D22F00701D1E90023DE
:1030E000CCE700000000000030000000F0B40D4606
:1030F0000188090502D5214C7C4402E01F4C7C4428
:103100000E34002100F1240608E002F00F07120936
:10311000E75D42EA03721B097754491C52EA030730
:10312000F3D102780023120704D5702D06D009B11F
:10313000022311342246F0BC00F02BB901231034D5
:10314000F8E770B504460D4621461068FFF75AFEB1
:10315000024629462046BDE870400023C6E7D21D3E
:1031600022F00703D3E90023C0E70368126843F0A5
:10317000200303600823C3610023B7E79C15000008
:103180002DE9F05F894604464FF0000ADFF874B17C
:10319000FB44C0F820A02046E1688847002874D08E
:1031A000252806D0D4E901219047206A401C2062DE
:1031B000F1E700265F462046E1688847202805465B
:1031C00007DB312D05D2781910F8200C08B1064321
:1031D000F1E7B00701D526F00406C4F81CA00027CB
:1031E000C4F818A02A2D09D0284601F019FA38B3DE
:1031F00004EB8708303DC8F8185019E059F8041B53
:10320000204604EB87029161E1688847012F05465B
:1032100018D1E069002820DA26F020061DE0D8F851
:10322000180000EB800005EB40003038C8F81800AB
:103230002046E1688847054601F0F2F90028EED102
:10324000012F0AD02E2D08D12046E16888477F1C27
:103250000546022F46F02006C4DBA069002803DAE9
:10326000404246F00106A061F00701D026F01006AA
:103270006C2D0BD0682D09D04C2D39D06A2D35D04E
:10328000742D35D07A2D33D016E038E0E1682F4622
:1032900020468847B842054609D16C2F26D04FF406
:1032A0008060E168064320468847054604E06C2FAD
:1032B0001AD04FF4807006430DB3A5F141001928D0
:1032C00002D8203546F400664A4629462046266044
:1032D0004E46FCF735FF80B101280BD0F61D26F0D5
:1032E000070000F1080956E74020E4E78020D8E70E
:1032F0000020D6E706F104094DE7284652E7206A88
:10330000BDE8F09F2C15000030B5B0F10A024FEA7D
:10331000900E71F100034EEA817EB0EB0E0061EB7E
:1033200091014FEA101E4EEA017E10EB0E0041EBB8
:1033300011114FEA102E4EEA016E10EB0E0041EB18
:1033400011214FEA104E4EEA014E10EB0E0041EBF8
:103350001141401841F100014FEAD00040EA4170AC
:103360004FEAD10110EB80054FEA810444EA9074E2
:1033700044EB01046D1944EB0404521BA3414FF0CC
:10338000000348BF0A3200D530BD401C41F10001A6
:1033900030BD2DE9F0470D4699469246044600F1AE
:1033A00024080168880604D5E06921F01001216035
:1033B00000E00120A84201DD471B00E00027A169D1
:1033C0007A1902EB0900081AA0612078C00602D41D
:1033D0002046FFF7E7FC002608E0D4E901211AF8AF
:1033E00006009047206A401C761C20624E45F4DBA4
:1033F0002078C0060AD52046FFF7D4FC06E0D4E9C1
:10340000012130209047206A401C2062381EA7F11D
:103410000107F4DC07E0D4E9012118F80500904722
:10342000206A401C2062281EA5F10105F3DC20461D
:10343000FFF7CEFC2078000602D50220BDE8F08719
:103440000120FBE770472DE9FF4F0C461E464FF069
:10345000FF378BB0D2E90001DDF860800A908A4620
:10346000C1F30A5505B93D46002108464FF000005A
:10347000BAF1000F00F4400005DA00EB80004FF4D1
:10348000400101EA50004FEA9059B9F1010F00DD07
:10349000B9460A9850EA4A000ED044F61050A5F2F8
:1034A000FF3545432F14B8F1000F1ED07542291E79
:1034B0001EDDC9F100021CE0B8F1010F4FF0000061
:1034C00001D0302103E0F24305E02154401CB0421A
:1034D000FBDB30460022002121540B99C1F8088003
:1034E000C1E900200FB0BDE8F08FBD1B6D1CDEE709
:1034F0004A4600DA694206A800F0F0FB06AB93E802
:10350000070003AB83E8070050460A9900F0ACFCC3
:103510008DE80700A0F500501F3800900398002D9B
:103520000ADD42F21F014A460844002303A9039022
:10353000684600F015FF09E0A0F500504A461F3824
:10354000002303A90390684600F01FFF8DE80700E1
:103550000004000C03D04FF0FF30410800E010469B
:10356000B8F1000F03D00022009215461EE0751E30
:1035700005D4FFF7C9FE303262556D1EF9D5B3464A
:103580000122084302D000227F1C04E0207830286A
:1035900001D100227F1E002A099784D01DE0112D41
:1035A00007DAFFF7B1FE303262556D1C50EA0102B6
:1035B000F5D1084302D00098C8B10EE00021681E82
:1035C00005E0235C625C63542254401E491C814226
:1035D000F7DBAB46A81B401E0990002004F80B0047
:1035E0000B98099AC0F80880C0E9002B7AE71126E9
:1035F0004FF0000857E72DE9F04F88460446D21DEA
:1036000022F0070191B0D1E90001CDE90A0100F0F3
:10361000F3FF02460B98C00F01D02D2007E0206871
:10362000810701D52B2002E0202101EAC000032AF6
:10363000099001D0072A05DB03464146204600F0E9
:103640000DFB0BE12078800601D5E06900E0062043
:10365000B8F1650F814606D0B8F1660F18D0B8F101
:10366000670F70D131E00020B9F1110F009001DB3C
:10367000112301E009F101030AAA01A90CA8FFF72F
:10368000E2FEDDE90C70002609F10105834647E002
:1036900001204B4600904FF000470AAA01A90CA850
:1036A000FFF7D1FEDDE90DB00C995D46002610B99B
:1036B00009F101000D18B9EB050003D4C0F1FF3684
:1036C00009F10105A5EB09002BE0B9F1010F01DAC1
:1036D0004FF001090020B9F1110F0090484601DDBB
:1036E000112300E003460AAA01A90CA8FFF7ABFECC
:1036F000DDE90C704D4600268346207800070AD489
:10370000AB4500DA5D4601A8012D04DD411911F831
:10371000011C302907D04F4502DA17F1040F04DAF3
:10372000012082460FE06D1EEEE7002F02DCED1B4C
:103730003E4403E0781CA84200DD7D1CB81B00F16C
:10374000010A4FF000472078000703D4AA4501DBA7
:103750004FF0FF3A0021B7F1004F0DF143088DF80B
:10376000431024D002202B23002F01DA7F422D2387
:103770000A21021EA0F1010000DC5FB197FBF1FC01
:1037800097FBF1F201FB1C7C17460CF1300C08F89A
:1037900001CDEEE7A8F1010003702188090501D5EC
:1037A000452100E06521A0F1010800F8011C0998FD
:1037B0000FA9A1EB0807FF1D00B10120411901EB82
:1037C000EA70A1693844081A401EA0612078C0063A
:1037D00002D42046FFF7E6FA099828B1D4E901217E
:1037E0009047206A401C20622078C00622D52046DF
:1037F000FFF7D8FA1EE0002E04DBB34502DD01A876
:10380000805D00E03020D4E901219047206A401C0F
:103810002062761CAAF101005FEA000A0AD100F0DA
:1038200019FAC0680168405CD4E901219047206A18
:10383000401C2062281EA5F10105DCDC07E0D4E96C
:10384000012118F8010B9047206A401C2062381EA5
:10385000A7F10107F3DC2046FFF7BAFA032011B005
:1038600041E600002DE9F04F04460D46D21D22F03E
:10387000070089B0D0E900974846394600F0BCFE01
:103880000246F80F01D02D2307E02068810701D5FB
:103890002B2302E0202101EAC0038DF820300BB178
:1038A000012000E00020032A824601D0072A04DB21
:1038B0002946204600F0D2F93FE12078800601D465
:1038C0000D2500E0E569C7F30A560D2D49DA002100
:1038D0004FEA175B08464FF00000002F00F440004D
:1038E00007DA00EB80004FF4400100EBD07001EAF2
:1038F00060008115012901DD4FF0FF3100224FEA00
:10390000850CBCF1180F06D31346ACF118004FF02C
:103910008052C24003E04FF4801323FA0CF30CF101
:103920000C0CBCF1200F04D3ACF1200C09FA0CF004
:1039300001E007FA0CF000294FF0004801DD18B94A
:103940000FE00ED140450CD319EB02095F4121B9BC
:10395000404502D19F4329EA0209BBEB175F00D023
:10396000761C2088000502D57B48784402E07A481E
:103970007844193808AA302302F80A30037C0AF187
:103980000101002E0AF1020A53546A4602DC4FF08C
:10399000300101E04FF031014FF001088DF80010C7
:1039A00002D0A6F2FF3603E059EA470100D06B4E81
:1039B000002D02DC2178090704D54FF002082E21E2
:1039C0008DF80110C44600210BE0C7F303433F010B
:1039D000C35C491C6D1E02F80830052908F1010876
:1039E00001DA002DF1DC00210CE000EB1973491C19
:1039F0001B786D1E082902F808304FEA091908F1F2
:103A0000010801DA002DF0DC21688B0602D516E0F2
:103A1000A8F10108E04505DD02EB080313F8013CBD
:103A2000302BF5D0B8F1000F09DD02EB080313F8D5
:103A3000013C2E2B03D1090701D4A8F10108002D68
:103A400005DD3E2102F808106D1E08F10108407CDA
:103A5000002E02F8080008F1010804DA2D20764251
:103A600002F8080002E02B2002F808000A214FF4B7
:103A70007A70864208F101080BDB96FBF0F33033D5
:103A800002F8083096FBF0F308F1010800FB13661A
:103A900001E0642E0CDB642096FBF0F3303302F877
:103AA000083096FBF0F308F1010800FB136601E013
:103AB0000A2E06DB96FBF1F0303002F8080008F120
:103AC000010896FBF1F001FB1060303002F80800AD
:103AD000A16908F1010808EB050202EB0A00081AC7
:103AE000A0612078C00602D42046FFF75BF9216A66
:103AF00008AE01EB0A00206204E0D4E9012116F8C7
:103B0000010B9047BAF1010AF7D22078C00602D51E
:103B10002046FFF747F96E4609E016F8010B3E28EC
:103B20000FD0D4E901219047206A401C2062B8F1EF
:103B30000108F2D22046FFF74BF909B00320BDE897
:103B4000F08F206A2844206203E0D4E9012130206C
:103B500090476D1EEBD3F8E7760D000002FCFFFFE7
:103B600010B5436913B1AFF3008001E0FFF753F9DB
:103B7000012010BD127800F124010A7000224A7061
:103B80000122EDE711684FF0FF32E9E710B5436914
:103B900013B1AFF3008001E0FFF7D4F9012010BDAD
:103BA000128800F1240182840022C2840122EDE700
:103BB00011684FF0FF32E9E770B516460C4605462E
:103BC00000F040F8036893F80101012806D0FF2CAB
:103BD0000FD8185D68B101202C7070BDD3F80701B3
:103BE0003246214603F2071303442846BDE87040DD
:103BF00018474FF0FF3070BD754600F0EBF8AE4649
:103C000005006946534620F00700854618B020B5E8
:103C1000FCF70EFBBDE820404FF000064FF0000718
:103C20004FF000084FF0000B21F00701AC46ACE864
:103C3000C009ACE8C009ACE8C009ACE8C0098D46D1
:103C40007047000010B500F005F8001D10BD00BF62
:103C50000D0A000000487047080300102DE9F041EC
:103C60001F46044603260168072A01F4006004DBAE
:103C700008B116A505E016A503E008B115A500E0FA
:103C800015A521F010002060A069C01EA0610FB131
:103C9000401EA0612046FFF785F84FB1D4E901210D
:103CA00038469047206A401C2062C01C206206E013
:103CB000206AFAE7D4E9012115F8010B9047761E36
:103CC000F8D22046FFF784F8BDE8F0814E414E005F
:103CD0006E616E00494E4600696E66002DE9F04740
:103CE000814616468AB0354878440DC88DE80D00E7
:103CF00032487844801C03AC0DC884E80D0041F6BE
:103D00009B300844372190FBF1F290FBF1F5A5F1CF
:103D1000800501FB12041B3C02D56442012000E037
:103D20000020DFF898A080460027FA44AAF1BE0AD6
:103D30000EE0E0070AD03246684607EB4701012350
:103D40000AEB810100F021FB8DE8070064107F1C65
:103D5000002CEED1194F7F44AE3F19E0E80715D093
:103D600007EB04100DF1180A90E80E008AE80E0027
:103D7000C068F04201D1981908903246012306A983
:103D800003A800F002FB03AB83E807006D10641C7E
:103D9000002DE3D14FF0010332466946B8F1000F20
:103DA00003A802D000F0DCFA01E000F0EEFAC9E965
:103DB0000001C9F808200AB0BDE8F087880A0000B1
:103DC00010B50446AFF300802046BDE81040FCF774
:103DD0001ABA000000487047E80200104FF0013C9A
:103DE00050F8042B51F8043B9A4221D1A2EB0C036A
:103DF000934313EACC1317D150F8042B51F8043B2A
:103E00009A4215D1A2EB0C03934313EACC130BD1C6
:103E100050F8042B51F8043B9A4209D1A2EB0C0351
:103E2000934313EACC13DBD04FF00000704700BF80
:103E3000D01A01BAB1FA81F101F0180122FA01F0A9
:103E4000CB40C1F12001DBB2C0B2C01A2CFA01F3A1
:103E5000D11A914311EAC311E6D1704701491820E4
:103E6000ABBEFEE7260002005FEA400C08BF91F0FF
:103E7000000F4FEA8C234FEAC12243EA51514FEA27
:103E80001C5018BF00F5F0404FEA300018BF41F059
:103E900000415FEA6C5C00F02980BCF1FF3F08BF85
:103EA00040F080407047130C06BF12044FF0100C16
:103EB0004FF0000C130E04BF12020CF1080C130F8C
:103EC00004BF12010CF1040C930F04BF92000CF11B
:103ED000020CD30F04BF52000CF1010C11464FF03D
:103EE0000002A0F11F00A0EB0C00704711F0004F82
:103EF00008BF704731F000413FF4D5AF0B0C06BF4F
:103F000009044FF0100C4FF0000C0B0E04BF090217
:103F10000CF1080C0B0F04BF09010CF1040C8B0F02
:103F200004BF89000CF1020CCB0F04BF49000CF157
:103F3000010CCCF12003A0EB0C0022FA03F302FAEF
:103F40000CF241EA030100F10100704720F07F4CC0
:103F500080EA030023F07F47ACEB070303F57C53B3
:103F600000F0004003F1FF032DE980494FEA154BB3
:103F700009B44FEA144325EA0B4E24EA03480FF232
:103F8000042606EB132749083E785FEA320203FB5A
:103F90000667C7F5000707FB06F64FEA54374FEAF6
:103FA000D64606F1020607FB066CCCF1005C4FEA30
:103FB0001C472CEA074C07FB06F40CFB06F504EB48
:103FC00015464FEA961634BF00204FF000404FEAE6
:103FD000D13706FB07FC4FEA1C4C0CFB0BF7D21B3E
:103FE00003FB0CF761EB07010CFB0EF7B0EB07408E
:103FF00072EB17420CFB08F734BFA2EB0742B2EB9F
:10400000074261EB17414FEA0C444FEA910706FB68
:1040100007FC4FEA1C4C0CFB0BF7B0EBC74072EBF4
:10402000573203FB0CF734BFA2EBC742B2EBC742D7
:1040300061EB57310CFB0EF7B0EBC70072EB577218
:104040000CFB08F734BFA2EBC702B2EBC70261EB6F
:104050005771039F4FEA816141EA921104EBCC044E
:104060004FEAD1374FEA826206FB07FC42EA901220
:104070004FEA80604FEA1C4C0CFB0BF7D21B03FB92
:104080000CF761EB07010CFB0EF7B0EB074072EB8E
:1040900017420CFB08F734BFA2EB0742B2EB074212
:1040A00061EB17414FEA8C554FEA910704EB9C24D2
:1040B00006FB07FC4FEA1C4C0CFB0BF7B0EBC740B0
:1040C00072EB573203FB0CF734BFA2EBC742B2EBE3
:1040D000C74261EB57310CFB0EF7B0EBC70072EB38
:1040E00057720CFB08F734BFA2EBC702B2EBC70252
:1040F00061EB577115EB4C254FEA816141EA921152
:104100004FEA82624FEAD13742EA901206FB07FC7F
:1041100044F100044FEA80604FEA1C4C0CFB0BF7A3
:10412000D21B03FB0CF761EB07010CFB0EF7B0EBA6
:10413000074072EB17420CFB08F734BFA2EB0742B3
:10414000B2EB074261EB174115EB1C154FEA8131C9
:1041500041EA92414FEA823242EA90424FEA80308D
:104160004FEA0C7644F1000448EA03434EEA0B4858
:104170004FF0000EB2EB080C71EB030724BF624650
:1041800039464EEB0E0E4FF0000B001852414941DC
:104190004BEB0B0BB2EB080C71EB03077BF1000B45
:1041A00024BF624639464EEB0E0E4FF0000B00184E
:1041B000524149414BEB0B0BB2EB080C71EB03077F
:1041C0007BF1000B24BF624639464EEB0E0E51EADE
:1041D000020718BF46F0010616EB0E7655F10002F5
:1041E00054F1000103D5BDE88901BDE80088BDE8B0
:1041F0008901BDE80048B619524141EB0101A3F124
:104200000103704780807F7E7D7C7B7A797877762A
:1042100076757473727171706F6E6E6D6C6C6B6AA3
:104220006A69686867666665646463636261616041
:10423000605F5F5E5E5D5D5C5C5B5B5A5A595958BE
:104240005857575656555555545453535252525128
:10425000515050504F4F4F4E4E4D4D4D4C4C4C4B7E
:104260004B4B4A4A4A4949494848484747474746C5
:104270004646454545444444444343434342424201
:1042800042414141002B9C4630D477002BD01CB5D5
:104290004FEA370703B44FF010004FF01001BAF1A6
:1042A000000F06D0BCF1000FDCBF40F0080040F06A
:1042B00008014FF000000FBCBDE810400BF1010BEE
:1042C000BBF1010F08BF5FEA170722BF12F101021D
:1042D00011F101014FF0004143F1000300F00040F3
:1042E00043EA00007047F9D35708D0E746EA06468C
:1042F00013F1400F4FEA16461FDD13F1200FDFBF09
:1043000016430A46002120335B42BED0C3F120078A
:1043100046EA064602FA07F74FEA164646EA070655
:10432000C3F1200722FA03F201FA07F721FA03F199
:104330004FF0000342EA0702A7E746EA020646EA10
:1043400006464FEA164646EA0106BCBF46EA06465E
:10435000360C4FF000034FF000024FF0000194E7DD
:104360002DE9804C9A46934670B491E8380007C80E
:1043700031EA400C48BF34EA430C03D5FFF7E6FDB1
:10438000FFF780FFF0BCBDE8008C2DE9804C9A4619
:10439000934670B491E8380007C810F0804F08BF0A
:1043A00013F0804F03D100F005F8FFF76BFFF0BC6E
:1043B000BDE8008C20F07F4780EA030023F07F4CAB
:1043C00007EB0C03A3F57C5300F00040A3F1FE03C0
:1043D00092F0000F00F0B38095F0000F00F07780AE
:1043E0002DE901494FEA11404FEA144621EA0048FD
:1043F00000FB06FC24EA064708FB06F607FB08F864
:1044000000FB07F718EB06484CEB164C4FEA124B33
:1044100018EB07484FEA15464CEB174022EA0B4EC3
:104420000BFB06FC25EA06470EFB06F607FB0EFE15
:104430000BFB07F71EEB064E4CEB164C4FF000063D
:104440001EEB074E4CEB174B18EB0B0840F100002E
:1044500018EB0E0B58EB000840F100008F1A4FF0DC
:1044600000013CBFC943661B14BFB5EB040C00211F
:104470003CBFC943F61B4FEA17444EEA8E0E27EAAB
:1044800004454FEA1C4704FB07622CEA074C05FB76
:1044900007F70CFB05F604FB0CFC16EB074642EB9A
:1044A000174216EB0C4642EB1C421BEB060658EB80
:1044B0000202414146EA9E0601D5BDE80189B619CE
:1044C000524141EB0101A3F10103BDE801894FEA2B
:1044D00014454FEA114724EA054621EA074C05FB3B
:1044E00007F406FB07F70CFB06F105FB0CFC11EBD0
:1044F000074144EB17444FEA124711EB0C4144EBE0
:104500001C4422EA074C05FB07F206FB07F70CFBED
:1045100006F605FB0CFC16EB074642EB174216EBC2
:104520000C4642EB1C456A1854F1000148BF704725
:10453000B619524141EB0101A3F10103704795F017
:10454000000F37D04FEA11424FEA144721EA0246E2
:1045500024EA074C02FB07F106FB07F70CFB06F405
:1045600002FB0CFC14EB074441EB17414FEA1547E3
:1045700014EB0C4441EB1C4125EA074C02FB07F508
:1045800006FB07F70CFB06F602FB0CFC16EB0746D6
:1045900045EB174516EB0C4645EB1C42121951F141
:1045A000000148BF7047B619524141EB0101A3F128
:1045B000010370474FEA14454FEA114724EA0546C4
:1045C00021EA074C05FB07F106FB07F70CFB06F297
:1045D0004FF0000605FB0CFC12EB074241EB1741C4
:1045E00012EB0C4251EB1C4148BF7047921841EB53
:1045F0000101A3F101037047490050EAC12018BF2F
:1046000004204A0D18BF40F0010040F2FF72B2EBE7
:10461000515F08BF40F00200012808BF0520704725
:1046200030380A2801D2012070470020704700006E
:1046300010B500290AD00878002807D0054878442A
:10464000FFF7CCFB002801D0002010BD02487844C1
:1046500010BD00006E0100006601000010B50029C9
:104660000AD00878002807D005487844FFF7B6FB41
:10467000002801D0002010BD0248784410BD000081
:104680005E01000056010000FEF7B5BFFFF7EAB873
:10469000000000000000000030313233343536377E
:1046A0003839414243444546403058003031323376
:1046B0003435363738396162636465664030780076
:1046C00004000008000000000000000200010000DB
:1046D00010303132333435363738396162636465CE
:1046E00066787000303132333435363738394142EC
:1046F000434445465850000002400000000000A01E
:104700000000000005400000000000C8000000009C
:104710000C4000000000409C000000001940000018
:104720000020BCBE0000000034400000BFC91B8E4A
:1047300000000004B5400000504BCFD06607E2CF28
:10474000010000006C4100003E8251AADFEEA73458
:1047500001000000D9420000DCB5A0E23A301F970A
:10476000FFFFFFFFB4450000FD25A0C8E9A3C14F2E
:10477000FFFFFFFFFF3F000000000080000000007F
:10478000FF3F00000000008000000000D84800004B
:10479000000000105C000000080100003449000027
:1047A0005C000010EC040000240100001C0000006C
:1047B00043000000F8FFFFFF0C0000000E000000A7
:1047C0000F0000002E000000100100004300000058
:1047D000F8FFFFFF00404040404040404040414122
:1047E00041414140404040404040404040404040C6
:1047F0004040404040050202020202020202020260
:10480000020202020220202020202020202020025C
:1048100002020202020290909090909010101010EC
:104820001010101010101010101010101010101088
:10483000020202020202888888888888080808081C
:1048400008080808080808080808080808080808E8
:104850000202020240000000000000000000000010
:104860000000000000000000000000000000000048
:104870000000000000000000000000000000000038
:104880000000000000000000000000000000000028
:104890000000000000000000000000000000000018
:1048A0000000000000000000000000000000000008
:1048B00000000000000000000000000000000000F8
:1048C00000000000000000000000000000000000E8
:1048D000000000000000000000E1F50500000000FD
:1048E00000000000000000000000000000000000C8
:1048F00000000000000000000000000000000000B8
:10490000000000000000000044656D6F20746572B7
:104910006D696E6174656421200D0A000800112222
:1049200033445566770000000000000000000000DE
:044930000000000083
:04000005000000CD2A
:00000001FF
